{"jsonrpc":"2.0","result":{"blockHash":null,"blockNumber":null,"creates":null,"from":"0x65fa6548764c08c0dd77495b33ed302d0c212691","gas":"0x55730","gasPrice":"0x51f4d5c00","hash":"0x8f9c84ef5149591dbd36b8cdb1374963e8b9499b0a3a8f0c796398d7271377a2","input":"0xe218e6d20000000000000000000000000000000000000000000000000000000000000002000000000000000000000000833898875a12a3d61ef18dc3d2b475c7ca3a4a720000000000000000000000000000000000000000000000000000000000000001000000000000000000000000000000000000000000000000000000000000000100000000000000000000000000000000000000000000000000000000000000c00000000000000000000000008664e7a68809238d8f8e78e4b7c723282533a7870000000000000000000000000000000000000000000000000000000000000041cc193b8fe8c8b986f676fdb142cc9cea5c8369ef494b5207abdaf0de4a27efd07cfc8c5094b6418384169ab467fc9c5e880730a502c0b6b87c35eb30baa6a8431b00000000000000000000000000000000000000000000000000000000000000","nonce":"0x52","publicKey":"0x58a3eb8315c503c6ef61eedbd7a40aa56c724dce0e5a5af5bb8f2186cd83786c06ed4ee9527d561e646490d24ed225c012fb917e9e2a5c15806cd655cde47975","r":"0xbb39ba06eafdbaaf9c300a5c5fb01f7b399961faeb3ed31c5ba950723e7b2764","raw":"0xf901ab5285051f4d5c008305573094af71e622792f47119411ce019f4ca1b8d993496e80b90144e218e6d20000000000000000000000000000000000000000000000000000000000000002000000000000000000000000833898875a12a3d61ef18dc3d2b475c7ca3a4a720000000000000000000000000000000000000000000000000000000000000001000000000000000000000000000000000000000000000000000000000000000100000000000000000000000000000000000000000000000000000000000000c00000000000000000000000008664e7a68809238d8f8e78e4b7c723282533a7870000000000000000000000000000000000000000000000000000000000000041cc193b8fe8c8b986f676fdb142cc9cea5c8369ef494b5207abdaf0de4a27efd07cfc8c5094b6418384169ab467fc9c5e880730a502c0b6b87c35eb30baa6a8431b000000000000000000000000000000000000000000000000000000000000001ba0bb39ba06eafdbaaf9c300a5c5fb01f7b399961faeb3ed31c5ba950723e7b2764a0650c5af079309ced74c60a2e0a91bfee4a42f297f1c212fd70e340da58dddddb","s":"0x650c5af079309ced74c60a2e0a91bfee4a42f297f1c212fd70e340da58dddddb","to":"0xaf71e622792f47119411ce019f4ca1b8d993496e","transactionIndex":null,"v":0,"value":"0x0"},"id":1}
