{"jsonrpc":"2.0","result":{"blockHash":null,"blockNumber":null,"creates":null,"from":"0x65fa6548764c08c0dd77495b33ed302d0c212691","gas":"0x55730","gasPrice":"0x57b4eb5a6","hash":"0x37e7f6bc808c2dbadda71fa84e13e00392884c6969a7f9b8cb36bbb6bdd08e37","input":"0xe218e6d20000000000000000000000000000000000000000000000000000000000000003000000000000000000000000833898875a12a3d61ef18dc3d2b475c7ca3a4a720000000000000000000000000000000000000000000000000000000000000005000000000000000000000000000000000000000000000000000000000000000500000000000000000000000000000000000000000000000000000000000000c00000000000000000000000008664e7a68809238d8f8e78e4b7c723282533a787000000000000000000000000000000000000000000000000000000000000004191eabdc516182180957b10b2f6268a45e2fd67f1671199ac518f2a16f3d64b8d367bdf5f2a39ceaeb6e052926454425c3242f58eea6a562328238fcd720a526a1b00000000000000000000000000000000000000000000000000000000000000","nonce":"0x5d","publicKey":"0x58a3eb8315c503c6ef61eedbd7a40aa56c724dce0e5a5af5bb8f2186cd83786c06ed4ee9527d561e646490d24ed225c012fb917e9e2a5c15806cd655cde47975","r":"0x601e47a2bc6aa189c1f2128bf8340958282d581b093d672298760f187fc95fd5","raw":"0xf901ab5d85057b4eb5a68305573094af71e622792f47119411ce019f4ca1b8d993496e80b90144e218e6d20000000000000000000000000000000000000000000000000000000000000003000000000000000000000000833898875a12a3d61ef18dc3d2b475c7ca3a4a720000000000000000000000000000000000000000000000000000000000000005000000000000000000000000000000000000000000000000000000000000000500000000000000000000000000000000000000000000000000000000000000c00000000000000000000000008664e7a68809238d8f8e78e4b7c723282533a787000000000000000000000000000000000000000000000000000000000000004191eabdc516182180957b10b2f6268a45e2fd67f1671199ac518f2a16f3d64b8d367bdf5f2a39ceaeb6e052926454425c3242f58eea6a562328238fcd720a526a1b000000000000000000000000000000000000000000000000000000000000001ba0601e47a2bc6aa189c1f2128bf8340958282d581b093d672298760f187fc95fd5a00aadac95453becfa780738237952e5fa7a7d89aabe6c9b5bd34dd65b870b3320","s":"0x0aadac95453becfa780738237952e5fa7a7d89aabe6c9b5bd34dd65b870b3320","to":"0xaf71e622792f47119411ce019f4ca1b8d993496e","transactionIndex":null,"v":0,"value":"0x0"},"id":1}
